:020000021000EC
:1080000000400020899B0100C59B0100C79B010027
:108010000000000000000000000000000000000060
:10802000000000000000000000000000C99B0100EB
:108030000000000000000000CB9B0100CD9B010070
:10804000CF9B0100CF9B0100159B0100CF9B01003E
:10805000CF9B010000000000CF9B0100CF9B0100DF
:10806000CF9B0100CD990100CF9B0100CF9B010068
:10807000CF9B0100CF9B0100CF9B0100CF9B010054
:10808000CF9B0100CF9B0100CF9B0100CF9B010044
:10809000CF9B0100CF9B0100CF9B0100CF9B010034
:1080A000CF9B0100CF9B01000000000000000000FA
:1080B00000000000000000000000000000000000C0
:1080C00010B5064C2378002B07D1054B002B02D0AE
:1080D000044800E000BF0123237010BD9820002059
:1080E00000000000F0B50100044B10B5002B03D0D8
:1080F0000349044800E000BF10BDC0460000000076
:108100009C200020F0B50100164B002B00D1144B31
:108110009D46402292029A1A924600218B460F46B3
:108120001348144A121A03F05BF80F4B002B00D0CF
:1081300098470E4B002B00D09847002000210400E8
:108140000D000D48002802D00C4800E000BF01F0EF
:10815000B1FF2000290002F0B9FE01F095FFC046F2
:1081600000000800004000200000000000000000A7
:108170009020002068220020000000000000000085
:108180007FB502F09BF8052101F05EFE05A802F024
:1081900049FAC82205A95200034800F061FF05A86A
:1081A00002F023FA07B000BD20210020F0B585B011
:1081B0001F000AAB1B880600029115000393002FD5
:1081C0001CD0282000F01CFB6B4604001989039B7F
:1081D000AAB200933B0002F0A7F9336821005B6864
:1081E0003000984700280AD0002C05D0200002F06B
:1081F000B2F9200000F024FB024800E0024805B07C
:10820000F0BDC04616FCFFFF17FCFFFF73B510263C
:10821000002001F07DFB02F02DF80C4C200000F056
:1082200007F90B4D03222B00012120000096FFF7D8
:10823000BDFF200000962B0003220221FA24FFF745
:10824000B5FFA400200000F00FFAFBE7B4200020E7
:1082500081810100F7B5194D0027280000F0F6FFD5
:10826000174C18492200280002F097FF0123164DF1
:108270001A0000971121280000F09AFC134E2200EA
:108280003100280002F089FF114D012300970222DE
:108290001A21280000F08CFC31002200280002F096
:1082A0007CFF0C4D0C4A2800062100F05FFD2800E1
:1082B00022000A4902F071FFF7BDC046B420002039
:1082C000002000200D920100D0200020998B010099
:1082D000F8200020202100201CB20100258D010083
:1082E0000B4B70B51C68002C10D0656D00F050FB76
:1082F000A36C002901D1834206D8200002F06AF85D
:108300000449200002F054F82C00ECE770BDC04690
:108310009C210020BC210020F0B593B007932A4B8C
:1083200004AC1E68049005910692002E4AD0274B9B
:10833000258867881C6800230293002C2ED0636D6B
:1083400023480393A36C9AB2A36C1B0C99B2854289
:1083500014D12048824211D1002B01D0B9420BD157
:10836000029B002B08D1200002F034F81A492000AB
:1083700002F01EF801230293039CDEE7002A01D0DD
:108380009542F9D1002B01D0B942F5D1200002F07D
:1083900021F81149200002F00BF8EDE70F4BEB1824
:1083A000012B0FD910233A00009329000C4B08A889
:1083B00002F0BAF8336808A99B683000984708A80B
:1083C00002F0C9F813B0F0BD98210020C8210020A8
:1083D000FE030000FF030000BC21002002FCFFFFA1
:1083E0001983010010B572B60B4B1C68002C08D025
:1083F000200001F0EFFF0023E364084B2000E3635B
:1084000010BD62B65C2000F0FBF95C220021040084
:1084100002F0E6FEEFE7C046C02100200040002049
:10842000024B1878012318407047C0466022002094
:10843000F7B50600FFF7F4FF051E33D11A4C26608E
:10844000FFF7D0FF194B1A49186001F0B1FFFFF791
:10845000C9FF184B1860184B4363184B836320689F
:1084600000280ED0C027164E2A0033001549009769
:10847000FFF79CFE009733002A0013492068FFF79E
:1084800095FE0C2000F0BCF90023838083710F4B14
:1084900003600F4B836000F093FA01230D4A1178BB
:1084A0000B431370F7BDC04698210020CC2100205B
:1084B000BC210020C4210020FC3F00209BA401001F
:1084C00019830100FF030000FE0300003CB201001D
:1084D000E182010060220020F7B506000D001700C0
:1084E0000193002802D100242000FEBD0029FAD00B
:1084F000FFF778FF041EF6D0074B019A436306602E
:1085000045608760054B002A00D0054BA3630549F1
:10851000200001F04DFFE7E7FC3F002065A40100CB
:1085200083A40100BC210020024B1868434258413B
:108530007047C046BC210020002310B504499C00B0
:108540006258002A01D00133F9E76050100010BDD5
:10855000A4210020002310B5044A99008C588442BD
:1085600001D00133F9E70020885010BDA42100207C
:1085700010B50024084BA200D058002802D0036890
:108580005B6898470134062CF4D1044B1B68002B20
:1085900000D120BF10BDC046A4210020BC21002076
:1085A000F8B5FFF73DFF00281BD0294D2C68E36C80
:1085B000DA0717D502263343E3640423254F3868CE
:1085C000C26C1343C364636BC36301F029FF386853
:1085D000416C00F0E4FE2868C36C334201D000F027
:1085E00018FFF8BD1C4F1D4E3A683168002A1ED195
:1085F00029602A688A4208D11B0706D52C60FFF73C
:10860000B7FF3B68002BFAD02B6029688C42E8D07A
:108610003368994214D1124B4B63124B8B63200089
:1086200001F0FEFE2968626C4B6C20000DE0206DAD
:10863000B84203D1606D002800D002002A60D8E75C
:108640009C42ECD1002210004B6C00F067FEC8E7A2
:10865000CC210020A0210020BC210020C42100202A
:10866000FC3F00209BA4010070B50500FFF7D8FE79
:10867000002803D1280002F036FD70BD0C4B1C68A9
:10868000E36CDB0706D5FFF7ADFE0A4B1860002848
:1086900000D0040000F07CF92D18A564200001F042
:1086A00099FE0549200001F083FEFFF779FFE4E71A
:1086B000CC210020A02100209C210020F0B51E4BE1
:1086C0001E4F1C683B6885B006000391002B30D01C
:1086D000FFF7A6FE00282CD0E36CDB070ED5FFF7D2
:1086E00081FE174B051E186008D001F073FE154976
:1086F000280001F05DFE2C00FFF752FF039B2000D5
:108700001B043343A36401F065FE20000E4901F011
:108710004FFE0E4B0024F318012B07D9C023009302
:10872000039A0B4B31003868FFF740FD200005B07D
:10873000F0BD084CFAE7C046CC210020982100206B
:10874000A0210020BC210020C821002002FCFFFF46
:108750001983010016FCFFFF10B5FFF761FE00282A
:1087600009D0054C206801F035FE0449206801F06D
:108770001FFEFFF715FF10BDCC210020C0210020F7
:10878000F7B507000D0000282ED0FFF749FE00289E
:108790002CD00724164E3068C36C1C4007D0154AF5
:1087A0002900380001F02DFE00242000FEBD00F05D
:1087B00018FE02213268D36C1940019103D00321C5
:1087C0008B43D364F1E701242343D3642800B847E3
:1087D0003268D36C1900A143D164019C5B07E4D5D6
:1087E000280001F046FEE0E7034CDEE7034CDCE73F
:1087F000CC21002073A4010017FCFFFF16FCFFFF33
:1088000070B5060000250C4B1B78AB4209DD0B4907
:10881000EB00C918300001F046FE041E09D10135F5
:10882000F1E7300001F06AFC041E02D1142000F0D0
:108830005DFE200070BDC04661220020D0210020D6
:1088400070B5002813D00D4B0D491C7800239C42B5
:1088500010DDDA00555885420AD28A1852688242E1
:1088600006D98023043802681B061343036070BDD9
:108870000133ECE701F04CFCF9E7C046612200202F
:10888000D021002070B5051E14DD0B4E0B4C336853
:10889000002B02D0206802F0FDFAFA2120680024A3
:1088A000074B89008361C4626943356002F0FAFABC
:1088B000200070BD0348FCE7E021002010220020CA
:1088C0006D89010017FCFFFFF8B5114F06003D68E8
:1088D000002D0AD13020FFF793FF040000F0B4FF11
:1088E0000C4BA5612360E5623C600B4D2B68002BAF
:1088F00009D11020FFF784FF040002F094FA200051
:108900002C6002F06AFA3000FFF7BCFFF8BDC046E9
:108910001022002004B301000C220020014B186833
:108920007047C046E021002070B50D4C2368002B35
:1089300003D00C4B1B68002B02D10620FFF7C4FFAD
:10894000206802F061FA02000749C3170D684E68FB
:108950005219734120680A604B6002F05BFA70BDE7
:108960000C220020102200209020002010B5FFF7DC
:10897000DBFF0024054BA200D058002802D003687A
:108980001B68984701340A2CF4D110BDE421002063
:1089900010B5FFF7C9FFFA22034B92001868596817
:1089A000002301F057FA10BD9020002010B5FFF70A
:1089B000BBFF024B1868596810BDC04690200020CC
:1089C0000B4B10B51B680400002B03D0094B1B6830
:1089D000002B02D10620FFF777FF0023064A9900FB
:1089E0008858002801D00133F9E78C5010BDC046EB
:1089F0000C22002010220020E4210020002310B5CA
:108A0000044A99008C58844201D00133F9E70020D0
:108A1000885010BDE4210020014B03607047C04620
:108A20004CB2010010B50548054C206001F086FEEF
:108A3000044A0549200002F0B0FB10BD4CB2010011
:108A40001422002000200020EBA50100084B73B584
:108A50001C680500002C0AD0010026680831082295
:108A6000684602F0B4FB0CCD31682000884773BD26
:108A70001822002010B5054C0121200001F052FE03
:108A8000034A0449200002F088FB10BD1C2200208C
:108A900000200020E1A601000388074A10B501204C
:108AA000934208D0834202D00020DB0703D41E206B
:108AB00000F01CFD002010BDFFFF000070B5C36971
:108AC000C1681A68451D8AB00400EB7F114255D079
:108AD000002B58D1EB7F082B0DD90122A37913422B
:108AE00009D11343A371A188130006A801F0D5FD95
:108AF000FFF74EFF2062EB7F012B23D80123A279E1
:108B00001A421FD00025A188A571022202A801F0F7
:108B1000C4FDA31DDE7F012E14D1FFF739FF2B000A
:108B2000226A801A994100900191019BA188AB4271
:108B300003D1174B009A9A4227D90123042206A891
:108B400001F0ABFD0322A3791340012B14D1FFF7F1
:108B50001FFF0023226A801A9941994202D10D4BCE
:108B6000984209D90223A279A1881343A37105224F
:108B7000012306A801F091FD0AB070BD0B2BA9D806
:108B80000133EB77A6E7013BFBE733000322D6E78F
:108B9000E7030000DB05000010B50400034B0833B9
:108BA0000360FFF72BFF200010BDC04654B2010048
:108BB000F0B5070000250E0085B002930AAB1B78C4
:108BC00008370393104B040008330360019285803B
:108BD000857129001822380002F002FB039A310047
:108BE000380002F0C2F96B466A469B88127AA3806D
:108BF000A31DE671DA77631D25622000DD77FFF79C
:108C0000DFFE200005B0F0BD54B20100F0B5040055
:108C100085B0637A9C46002B04D1200001F0BCFD96
:108C200005B0F0BDA37A266F01931023019AF35685
:108C300000259B1801229A402900F36803920293B1
:108C4000029BAB4231DDB368019A6B439B1872699A
:108C50005B00E77AD3181A785878E379012F14D19A
:108C60005F1E3F1A10003A005B004343606F82189A
:108C7000D3189B79634500DD6346627B1A4202D0BC
:108C80000123AB4019430135DAE7022F05D15F1EFE
:108C9000BA1A277A013F381AE6E7032FE4D1277A78
:108CA000013FBF1A02003800DEE71123C943F35623
:108CB000606C994023691940039B194302F063FAE1
:108CC000A27B072AACD8637B0C495B006373531CFF
:108CD000DBB290004158A373022A03D8080002F0C7
:108CE000F7F996E7064B2000236300236363054BE7
:108CF000E4622364143002F0D5F891E76CB201000D
:108D00000D8C010083A7010010B50400044B036023
:108D100002F0C0F8200000F0ADFD200010BDC046FC
:108D200004B3010010B504000E4B08330360FFF7D5
:108D300065FE2000743001F0ABFF2000603001F0D0
:108D4000A7FF2000583001F050FC2000503001F007
:108D50004CFC2000044B14306361FFF7D5FF20006A
:108D600010BDC0468CB2010018B30100F8B5002553
:108D70000400324B8580083303608571143016007F
:108D80000F0000F061FD20002D4BE562636125645A
:108D90005030FFF741FE20005830FFF73DFE200025
:108DA000603000F06FFC20000423F25E3368266719
:108DB000590009B2743001F081FF3368226FE3710A
:108DC00073680126237210236581A7802561D3561D
:108DD00091685918994204DD3000984001330543E9
:108DE000F8E711230120D356D1685918994206DDBE
:108DF00002009A402669013332432261F6E71420CB
:108E0000FFF7FEFC226900212A430123060000F03F
:108E1000A7FEFF23220063720133A381002348329F
:108E20006664A37320001370A366FFF7C9FD0123D6
:108E3000A27920001343A371F8BDC0468CB2010093
:108E400018B30100F0B5437A85B00400002B04D1BB
:108E5000200001F0A1FC05B0F0BD0122837A1100D1
:108E60009C461023066F0025F356039263449940F5
:108E700002912900F3680193019BAB422CDDB3689A
:108E800072696B4363445B00E77AD3181A785878A9
:108E9000E379012F10D15F1E3F1A10003A005B00EA
:108EA0004343606F8218D3189B79002B02D0039B39
:108EB000AB4019430135DFE7022F05D15F1EBA1A17
:108EC000277A013F381AEAE7032FE8D1277A013FD2
:108ED000BF1A02003800E2E71123C943F356606C61
:108EE000994023691940029B194302F04CF9667AB4
:108EF000B31EDBB2FC2B14D8FFF710FD0B4B0500A3
:108F0000236300230A4863630A4BFF21E46223645E
:108F1000704300F0B3FE290041432000143001F0FB
:108F2000C1FF637A012B00D995E791E799A701006A
:108F3000B603000083A701001FB5012381881A0032
:108F4000684601F0AAFB012303491A00684601F0B4
:108F5000A4FB05B000BDC046FE03000010B54830BC
:108F60000378002B06D00378012B03D0012102489F
:108F700001F06FFA10BDC046FF03000010B50121DB
:108F80000400062001F065FA064B984208D14834E7
:108F90002378002B04D02378012B01D020BFF7E7E2
:108FA00010BDC04616FCFFFF70B50600141E19DB8D
:108FB000050048352B78002B02D02B78012B13D1DC
:108FC000002330001A00743000F0B8FB002C07D0EA
:108FD00033004A331C80002407234C3634802B7026
:108FE000200070BD014CFBE7014CF9E717FCFFFFC7
:108FF00012FCFFFFF8B517000A68050052880B0045
:10900000012A09D10021180001F030FB00220100E3
:109010002800FFF7C9FFF8BD002F19DD060048360C
:109020003278002A02D03278012A13D12A00002493
:1090300028005C3219001480583001F008FB2B0026
:109040004A331F8003234C352C8020003370E2E725
:109050000148E0E70148DEE717FCFFFF12FCFFFFD5
:10906000F7B505000E00171E26DDFFF777FF2B0072
:1090700048331C78E4B2002C20D133685B88012B84
:1090800009D12100300001F0F1FA2200010028008E
:10909000FFF78AFFFEBD310001A801F0D0FA3A00C7
:1090A00001A92800FFF7A6FF01A801F09EFA2800F9
:1090B000FFF764FF2000EDE70148EBE70148E9E72F
:1090C00017FCFFFF11FCFFFFF8B50D1E30D0002686
:1090D0000227C468002C28D0AA88A38853403B42AA
:1090E00004D13A4204D1AB883B4219D0646AF1E71B
:1090F000A968A06801F0BBFD0028F4D02B88002BE4
:1091000002D022889A42F1D16B88002B02D062886B
:109110009A42EBD1A288074B01361343A380E5E7BF
:10912000A368AA689342E1D1E8E72000002E00DCA2
:109130000148F8BD0080FFFF17FCFFFFF0B50600F7
:1091400085B00D1E59D00127C468002C22D0022101
:10915000AA8800230A4202D0A3885B083B40226809
:1091600029688A4210D1A068A968002B0AD001F0B2
:109170007EFD002808D0A3881AB2002A06DB20480A
:1091800005B0F0BD8842F6D0646ADEE75B045B0C94
:10919000A380F4E7F0682A88002807D1F56001234E
:1091A0001849684601F079FA0020E9E70100030058
:1091B0001C88944206D25C6A1900002C0DD0230052
:1091C000F6E723001C88944207D15F886C88A74289
:1091D00003D25C6A1900002CF3D1814209D10B88BB
:1091E0009A4204D305D148886B88984201D96962B4
:1091F000D4E74B6A6B624D62D1E70348C0E7C046D3
:1092000016FCFFFFFD03000017FCFFFF064B10B527
:109210001A00040008322C33026043600430FFF768
:1092200099F9200010BDC046A4B2010008B4024B59
:109230009C46043808BC60470D92010008B4024BFC
:109240009C46043808BC60477FAA01000C4A0023F2
:1092500011002C32083110B5038183724260C36063
:10926000036143614383016004000430FFF764F944
:10927000044B1A68002A00D11C60200010BDC046B3
:10928000A4B2010018220020F7B50E000125C46821
:109290000192002C36D0238832889A4201D0002BCC
:1092A00023D1638872889A4201D0002B1DD1FFF729
:1092B000B7F80123002806D0C022A3881340C03B82
:1092C0005A425341DBB2019A934219D1A7883BB26B
:1092D000002B15DB10223100A01801F078FF40238D
:1092E0001F4204D0200001F0D3FB646AD1E7FFF7EE
:1092F00097F80028F6D021000348FFF741FAF4E779
:109300000025F2E72800FEBD91AA010008B4024B37
:109310009C46043808BC604719AC0100002815D0F1
:10932000006041608260C360046145618661C7611D
:10933000444604624C464462544684625C46C462BD
:10934000644604636E46466374468463002A06D00E
:10935000C46B043C043A25681560B442F9D18C6BA7
:10936000A6464E6BB546002B06D0CC6B043C043BA6
:109370001D682560B442F9D10C6BA446CC6AA346A3
:109380008C6AA2464C6AA1460C6AA046CF698E69D7
:109390004D690C69CB688A68086849687047006045
:1093A00041608260C360046145618661C761444673
:1093B00004624C464462544684625C46C46264461D
:1093C00004636E46466374468463C46B043C04398C
:1093D00025680D60B442F9D1C76986694569046999
:1093E0007047006041608260C360046145618661CE
:1093F000C761444604624C464462544684625C46FB
:10940000C462644604636C464463744684630469BE
:109410007047846BA646446BA546046BA446C46A99
:10942000A346846AA246446AA146046AA046C76964
:10943000866945690469C368826800684168704745
:1094400010B5041E0CD001F0D3FE431EE3189C425D
:1094500008D222781978013B21705A700134F6E75E
:10946000014810BD0020FCE717FCFFFFF0B585B0F8
:1094700002900C1E2AD00023C217161A56400193E0
:10948000019B30005D1C63190A215F1E039300F0ED
:10949000DBFC49423031397030000A2100F0EEFB2C
:1094A00047420600002F0FD1029B002B04DA2D2328
:1094B000019D039A02351370002320006355FFF7C6
:1094C000BFFF380005B0F0BD0195D9E7004FF8E7C0
:1094D00017FCFFFFBFF34F8F024B034ADA60BFF365
:1094E0004F8FFEE700ED00E00400FA05F0B597B0FD
:1094F00018220021060010A801F072FE132110A806
:1095000001F02EFD032110A801F0F4FD4C4B1B6867
:10951000002B00D10133DBB202934A4A0123002120
:109520000BA800F01DFB484B9E4200D9002672B6E6
:10953000464B64211D68464B30000793052400F01C
:109540009DFB60435030281808900A21300000F03D
:1095500095FB0A2100F078FC6143503169180991AC
:1095600030000A2100F070FC802361430024503158
:1095700069189B010A910193029B002B5DD0002585
:1095800000272E1F07AB9B190593032C03D18023C3
:1095900000249B01019307AB5B592E4A03936300A0
:1095A000D31804930023190006205843049A161870
:1095B0007678B4466246039EB25C10269446049ABE
:1095C000105C62460641164202D0012098400143D9
:1095D0000133092BE8D1C9431F4B059A09011940F2
:1095E0001268039B934225D1312F23DC00210BA865
:1095F00001F0C9FDFA23159A1199DB0010680142A8
:109600001BD0013B002BF9D1019B01345B0001937E
:10961000FA230137E4B25B009F42B6D10435102D26
:10962000AED1074B1B68002BA6D0029F013FFBB2B7
:109630000293A1E7019B1943D9E7FFF74BFFC0460F
:1096400020220020F0FF0000E7030000042000209B
:1096500010B40100DAB30100F01F0000020010B5E1
:10966000014B12CB12C210BD24220020034B1A68FA
:10967000034B1A607E225A607047C04604200020C7
:1096800024220020014B03607047C046E0B2010075
:10969000F0B5070085B00E001D0000291FDD002B6E
:1096A0001DD00468638803938B4200DD0391A38877
:1096B0000293934200DD0292002306340193019B42
:1096C000029A93420EDA29002000039A01F07FFDEE
:1096D0003B68AD195B88E418019B0133EEE7024853
:1096E00005B0F0BD0020FBE717FCFFFFF8B5040054
:1096F0000D0016001F00002901DB002A02DA0E4BC4
:109700002360F8BD100048430630FFF779F8206069
:1097100001F011F823685D8023689E80002F06D039
:109720003B00320029002000FFF7B2FFE9E72000EC
:1097300001F0BBFAE5E7C046E0B20100F0B5040075
:1097400089B006A80E0002921D00FFF787FF23686C
:1097500002995A88914235DA9B889D4232DA1F2E4F
:1097600030D9079B01939E422CDC052300227343D2
:109770000393069B0493039B04999B18A03BCB5C2B
:1097800000210593AE18029BCF18236858880190DA
:1097900087420EDA9888B0420BDDDB1910270F41A3
:1097A000019870431B1805980740781E87417F4237
:1097B0009F7101310529E6D10132052ADBD1002054
:1097C00009B0F0BD0048FBE717FCFFFFF7B50468E0
:1097D000070063880E1E01931EDD994218DA0023EC
:1097E000063400933B68009A9B889A4212DA019BE8
:1097F000A1199D1B2A00200001F0E9FC601931002D
:1098000001F04DFA3B685B88E418009B0133E8E700
:1098100001F04BFA002000E00048FEBD17FCFFFFFE
:1098200010B50548054C206000F088FF044A054942
:10983000200001F0B2FC10BDE0B201002C2200209B
:109840000020002091AC0100084B10B508330360E4
:10985000002343608360C360040000F039F80449CA
:10986000206101F099FB200010BDC046E8B2010064
:1098700043AE010010B50400034B0833036001F050
:10988000EDFA200010BDC046E8B201000300074A0F
:109890001068C318EFF308818B4205D30C22012016
:1098A000034B40421A6070471360FCE70820002019
:1098B0006422002010B50400044B036001F0EAFAB2
:1098C0002000FFF7D7FF200010BDC04604B3010001
:1098D0000048704724B3010010B5024801F065FB51
:1098E00010BDC04624B30100074B70B51B680400CF
:1098F0000D00002B00D09847044B1B68002B02D0B2
:1099000020002900984770BD382200204422002002
:109910000C4B10B51B680400002B06D0984700289C
:1099200003D100200021FFF7DFFF074B00201B6859
:109930000021002B00D09847002C01D020606160EE
:1099400010BDC0463C2200204022002001704B1C6C
:109950000AD001238B404360044BC360044B036176
:10996000044B4361044B83607047C04608050050B8
:109970000C0500501005005014050050012310B5CF
:109980000D4C0E49A36480239B00CB670C490D4A04
:10999000086D002804D000200865116801311160AD
:1099A00009490B60A923DB001068E358010C9BB246
:1099B0000004184310BDC0460090004004E100E0E0
:1099C000FC9000404822002000E100E0F8B50F4C78
:1099D000636C002B0FD000270D4E67643378BB42B9
:1099E00009D00C4B1D68FFF7C9FF2D1ABD4202DCE0
:1099F0003770FFF771FF236D002B05D0064A1368FF
:109A00000133136000232365F8BDC046FC9000407D
:109A1000622200204C2200204822002070B51B4DFD
:109A20002878002831D10121194B1A4A5960506019
:109A30008020C005016051680029FCD00022164931
:109A4000A2205A5004240121C000D9601C500838BB
:109A50001A501248C2261A50C122802092000003D8
:109A600098508020400298500D4AB60090590D4CF5
:109A70000440C020000220439051C0248020640094
:109A80008000105110601960297070BD63220020A1
:109A900000900040FC000040040500004C05000060
:109AA00000E100E0FF00FFFF044B10B51B78002B26
:109AB00001D1FFF7B3FFFFF761FF10BD6322002064
:109AC000104B70B51B780400002B01D1FFF7A6FFE7
:109AD0000D4D0E4E2B78002B02D03368A34210D0D0
:109AE000FFF74CFF201A0A2803DCFFF747FF0A3074
:109AF000040001232B70A823054A3460DB00A4B2C4
:109B0000D45070BD63220020622200204C2200202D
:109B100000900040C1230E4A9B00D15810B50906A1
:109B200003D50C49096A002908D1D3585B0704D52D
:109B3000084B0021DB68002B01D110BD0121064B31
:109B400018680028F9D0054B1B689847F5E7C04610
:109B500000200040FC200040542200205022002021
:109B60000261064A10B54260054A01738260054AE7
:109B70001900026001F0E4FA10BDC046040500506F
:109B800010050050000700500848026803210A43EE
:109B900002600749074A084B9B1A03DD043BC8587B
:109BA000D050FBDC054880470548004724050040AD
:109BB000FCB50100002000208C200020D19B01007A
:109BC00009810100FEE7FEE7FEE7FEE7FEE7FEE7AC
:109BD000224910B50B68DBB2012B0FD1204B1B685B
:109BE0001B070BD11F4BE0241A68F023100018400C
:109BF000224228D11C4A12681A4227D00B68DBB2D5
:109C0000012B12D1164A126812070ED1F021154A03
:109C100012680A40402A08D1134A12680A4204D145
:109C20008021C122C905D2008B508022A3230021AC
:109C3000D205DB00D1500D4B9960013191609A68DB
:109C4000002AFCD010BD3028D4D0D7E7084B094AF1
:109C50001A608022084B12021A60CFE7E00F00F072
:109C6000E40F00F0E80F00F0EC0F00F0FC00004003
:109C700004050040DFFF07C0186C004003460B439B
:109C80007FD4002243088B4274D303098B425FD3F5
:109C9000030A8B4244D3030B8B4228D3030C8B4221
:109CA0000DD3FF22090212BA030C8B4202D3121207
:109CB000090265D0030B8B4219D300E0090AC30BDC
:109CC0008B4201D3CB03C01A5241830B8B4201D389
:109CD0008B03C01A5241430B8B4201D34B03C01A72
:109CE0005241030B8B4201D30B03C01A5241C30AEA
:109CF0008B4201D3CB02C01A5241830A8B4201D35B
:109D00008B02C01A5241430A8B4201D34B02C01A44
:109D10005241030A8B4201D30B02C01A5241CDD2E9
:109D2000C3098B4201D3CB01C01A524183098B4234
:109D300001D38B01C01A524143098B4201D34B011D
:109D4000C01A524103098B4201D30B01C01A524180
:109D5000C3088B4201D3CB00C01A524183088B4207
:109D600001D38B00C01A524143088B4201D34B00F0
:109D7000C01A5241411A00D2014652411046704762
:109D80005DE0CA0F00D04942031000D34042534067
:109D900000229C4603098B422DD3030A8B4212D327
:109DA000FC22890112BA030A8B420CD38901921159
:109DB0008B4208D3890192118B4204D389013AD096
:109DC000921100E08909C3098B4201D3CB01C01A6B
:109DD000524183098B4201D38B01C01A524143097E
:109DE0008B4201D34B01C01A524103098B4201D36C
:109DF0000B01C01A5241C3088B4201D3CB00C01AD9
:109E0000524183088B4201D38B00C01A5241D9D2F0
:109E100043088B4201D34B00C01A5241411A00D271
:109E20000146634652415B10104601D34042002B6D
:109E300000D54942704763465B1000D3404201B5EC
:109E4000002000F005F802BD0029F8D016E77047A1
:109E50007047C046002B11D1002A0FD1002900D134
:109E6000002802D00021C943081C07B4024802A1FF
:109E70004018029003BDC046D9FFFFFF03B46846F7
:109E800001B5029800F006F8019B9E4602B00CBC9A
:109E90007047C046F0B54F464646D646C0B50400AA
:109EA00082B00D00914698468B422FD82CD0414667
:109EB000484600F0CFF829000600200000F0CAF85C
:109EC000331A9C46203B9A4600D576E04B465246D4
:109ED00093401F004B46624693401E00AF4228D875
:109EE00025D05346A41BBD41002B00DA7BE00022A5
:109EF00000230092019301235246934001930123D2
:109F000062469340009318E08242D0D90022002399
:109F1000009201930A9B002B01D01C605D600098A9
:109F2000019902B01CBC90469946A246F0BDA342DE
:109F3000D7D900220023009201936346002BE9D079
:109F4000FB079846414672080A437B0866460EE0C6
:109F5000AB4201D1A2420CD8A41A9D410120241980
:109F60006D410021013E24184D41002E06D0AB4228
:109F7000EED9013E24196D41002EF8D100980199C7
:109F8000534600196941002B23DB2B005246D34076
:109F90002A006446E2401C0053461500002B2DDBCE
:109FA00026005746BE40330026006746BE403200BA
:109FB000801A994100900191ACE7624620239B1AD8
:109FC0004A46DA406146130042468A4017001F4362
:109FD00080E7624620239B1A2A0066469A402300A7
:109FE000F3401343D4E76246202300219B1A00224A
:109FF000009101920122DA40019280E7202362461B
:10A0000026009B1ADE402F00B0466646B740464603
:10A010003B003343C8E7C0461C2101231B04984280
:10A0200001D3000C10391B0A984201D3000A0839E9
:10A030001B09984201D30009043902A2105C4018A0
:10A040007047C04604030202010101010000000044
:10A050000000000010B5002903D1FFF7DDFF20301C
:10A0600002E0081CFFF7D8FF10BDC04610B5040081
:10A0700004481300002804D00A000220210000E058
:10A0800000BF10BD00000000084B10B50400002BFD
:10A0900002D0002100E000BF054B1868836A002B46
:10A0A00000D09847200000F019FFC04600000000D3
:10A0B000A0B3010070B500260C4D0D4C641BA4101C
:10A0C000A64209D1002601F09DF80A4D0A4C641BF6
:10A0D000A410A64205D170BDB300EB5898470136D5
:10A0E000EEE7B300EB5898470136F2E77020002006
:10A0F00070200020702000208820002010B5034B25
:10A100000100186800F058F810BDC0460C2000206F
:10A1100010B5034B0100186800F004F810BDC046EC
:10A120000C20002070B50500002910D00C1F2368FA
:10A13000002B00DAE418280001F061F81D4A1368CA
:10A14000002B05D163601460280001F059F870BD40
:10A15000A34209D9216860188342F3D118685B686B
:10A1600041182160EEE713005A68002A01D0A2428C
:10A17000F9D919685818A0420BD120680918581845
:10A1800019608242E0D110685268411819605A6023
:10A19000DAE7A04202D90C232B60D5E721686018CA
:10A1A000824203D1106852684118216062605C608D
:10A1B000CAE7C04658220020032370B5CD1C9D433A
:10A1C000083506000C2D1ED20C25A9421DD83000E2
:10A1D00001F015F8254A14682100002919D1244CF2
:10A1E0002368002B03D1300000F09AF8206029008A
:10A1F000300000F095F8431C2BD10C233000336065
:10A2000000F0FEFF03E0002DDFDA0C2333600020B6
:10A2100070BD0B685B1B19D40B2B03D90B60CC18DA
:10A22000256003E04B688C420DD11360300000F0D4
:10A23000E7FF200007220B30231D9043C31AE7D00D
:10A240005A42E250E4E763600C00EFE70C00496813
:10A25000C3E70323C41C9C43A042E1D0211A300071
:10A2600000F05EF8431CDBD1C7E7C046582200204F
:10A270005C2200200D4B70B51C680500A36B002B01
:10A280000FD11820FFF73AFF094BA0630360094B79
:10A2900001224360084B83600B238381002302610A
:10A2A00043610022A36B1D615A6170BD0C20002028
:10A2B0000E33CDAB34126DE6ECDE0500124B10B55B
:10A2C0001C68A36B002B0FD11820FFF717FF0F4B53
:10A2D000A06303600E4B012243600E4B83600B238F
:10A2E0008381002302614361A46B0B4A2069616989
:10A2F0000A4B00F027F80122002380185941206101
:10A3000061614800400810BD0C2000200E33CDAB29
:10A3100034126DE6ECDE05002D7F954C2DF451587E
:10A32000002370B5064C050008002360FFF7AEFA65
:10A33000431C03D12368002B00D02B6070BDC046A6
:10A3400064220020F0B5CE46474615042D0C2E00A1
:10A3500080B50704140C3F0C9946030C7E435D4303
:10A36000674363437F19340CE4199C46A54203D923
:10A3700080235B029846C4444B4643435143250C1B
:10A3800036046544360C2404A4195B1959182000BE
:10A390000CBC90469946F0BD704710B5836898474D
:10A3A00010BD704710B50400FEF74AFA200010BD3A
:10A3B00072B60B680165002B05D1436583650860A3
:10A3C00062B6704713005A6D002AFBD15865836549
:10A3D0004265F5E7036D002B0FD072B6826D436DB9
:10A3E000002A0BD05365436D002B01D0826D9A6516
:10A3F000002343658365036562B67047026D136091
:10A40000F1E770B504000E001500FEF709F800280A
:10A4100005D00123320029002000FEF75DF870BD51
:10A4200070B50500EFF30884C36B006C1C1B6B6CEC
:10A430001B1A9C420CD91F2320349C43002801D0B6
:10A44000FEF7FEF92000FEF7DBF9286400196864C6
:10A4500070BD10B5FEF732F9041E01D1FEF7A0F869
:10A46000200010BD10B50C008047A047FEF774F91E
:10A4700010BD10B5FDF7D4FF002801D0FEF76CF930
:10A4800010BD70B51400030010000D0098472000A7
:10A49000A8472000FFF7EDFF70BD10B5FEF768F884
:10A4A000FEF77EF8FAE7F0B58208830703D1031EB2
:10A4B00002D11800F0BD0132541C72B6802621C9A9
:10A4C0003606854225D90368002B02DB9B00C018A5
:10A4D000F7E75B005B08990041180F68002F08DA66
:10A4E0008D4206D931007F007F08DB1919430160D6
:10A4F000F1E7A342EAD302329A4203D292008218D1
:10A50000954209D803685B005B08036062B6031DCF
:10A51000CFE762B60023CCE7191B80231B06043A61
:10A520000B4313600460F1E7F7B51D0008AB1B880F
:10A530000400103016000F00019300F0A4F86A46E2
:10A540000023928827806680A5602000E360A280B7
:10A5500063622362FEBD10B5838804009B0702D5A9
:10A560008068FEF76DF9200010BD82B030B5046A36
:10A5700087B00B9305000A920123002C18D11022FA
:10A580000AA902A800F023FE1820FEF739F90400FA
:10A59000082204A9684600F01AFE029A039B2000D4
:10A5A00000F08BF82C6207B030BC08BC02B0184732
:10A5B0002269002A02D001331400F9E7092BF2DCEA
:10A5C00010220AA902A800F002FE1820FEF718F9CE
:10A5D0000500082204A9684600F0F9FD029A039BD1
:10A5E000280000F06AF82561DDE710B50400006876
:10A5F00000F0AEF8200010BD70B5060008000D0098
:10A6000000F0F6FD04000530FEF7FAF8306000F0C7
:10A6100092F8336829005C803068621C043000F0D6
:10A62000D6FD70BD1FB50400080001A9FEF71EFF8E
:10A63000200001A9FFF7E0FF200004B010BD10B515
:10A6400004000868206000F079F8200010BD70B5A3
:10A650000B68040000680D00984205D000F078F8FF
:10A660002868206000F06AF8200070BD0022914246
:10A6700007DB03680222985E0022884201DD5B1836
:10A680001A7910007047002310B503600400FEF72C
:10A690008DF9A060E160200010BD70B5018042809E
:10A6A00004001D00FEF782F9A060E160002D02D0D9
:10A6B0002000FEF7CBF9200070BD82B010B5040079
:10A6C00003930292FFF7DFFF102202A9200000F09F
:10A6D0007EFD00232000236110BC08BC02B0184797
:10A6E00010B50400006800F033F8200010BDF8B584
:10A6F000D443E4171440050020000C301F000E0066
:10A70000FEF77EF8286000F016F82B681C722B68A4
:10A710005F60002E05D0286822000930310000F06B
:10A7200056FDF8BD002310B504000A001900FFF71C
:10A73000DEFF200010BD03230380704710B5040026
:10A74000FEF7AAF9002802D123880233238010BD26
:10A7500010B50400FEF7A0F9002808D12388023BB9
:10A760009BB22380012B02D12000FEF769F810BDB7
:10A7700010B50400FEF710FA2000FEF761F8200083
:10A7800010BD4A6810B55310C0180B68D20701D528
:10A790000268D358984710BD10B50021406C00F0F6
:10A7A000F2FC10BD10B50400FEF7BCFA2000FEF765
:10A7B00047F8200010BD10B50400FEF7A5FA2000F0
:10A7C000FEF73EF8200010BD70B50500040074359A
:10A7D00001212800FEF7FAFF2200563213780133D8
:10A7E000DBB21370E17901318B4222D100232600C4
:10A7F0001370226D54360221525E33882021934219
:10A8000005DA200019B25030FFF730FF0100E2797D
:10A8100000232800FEF792FF226D33880221525E4A
:10A82000934207DD2300002248331A702000FEF710
:10A8300083FB70BD01333380FBE770B50500060074
:10A84000826D5C350221525E2B8804007436202113
:10A85000934204DA19B25830FFF708FF01000023D1
:10A8600030001A00FEF76AFFA26D2B880221525EAB
:10A87000934207DD2300002248331A702000FEF7C0
:10A880005BFB70BD01332B80FBE773B50400060052
:10A89000250074363000643500F007FA0023EA5EC4
:10A8A0002100002360310093300000F00EFA0028F0
:10A8B00004D123006C331B78002B0AD16622A256E8
:10A8C000002A06D02B886C349B182B800123237020
:10A8D00073BD2300002248331A702000FEF72CFBC2
:10A8E000F6E7F0B506000021050004006636006EAC
:10A8F0007156408864350023EA5E4B1D1B1A200008
:10A9000085B06C3003909A4210DC0378002B0DD098
:10A910001C3D2B78062B02D1083000F0C6F900232D
:10A9200020002B70FEF708FB05B0F0BD2700743740
:10A93000002A04DD494209B23800FEF747FF002330
:10A94000EA5E2100002360310093380000F0BDF979
:10A950000023F356002B05D122004832137020004B
:10A96000FEF7EAFA0123039A137000232A88F356AC
:10A970009B182B80D8E770B5050048352B7804006C
:10A98000002B31D0FDF7CAFF22004C321388181873
:10A99000230080B210804A331B88834224D80023CE
:10A9A00013802B78022B02D12000FFF70DFF2B78AC
:10A9B000032B02D12000FFF740FF2B78042B02D19C
:10A9C0002000FFF762FF2B78052B02D02B78062B97
:10A9D00002D12000FFF785FF2B78072B04D100233D
:10A9E00020002B70FEF7A8FA70BD1FB5036F827AA6
:10A9F0009B68040001339A4208D181880123022216
:10AA00006846FFF74AFE0023A3721FBDFEF71AFA3D
:10AA10002000FFF7B0FFA37A0133F5E710B5837983
:10AA20000400DB0704D5027B022A02D1FFF7DDFF19
:10AA300010BD837A016F0133DBB2837289688B4268
:10AA400001D100238372002A02D12000FEF7FAF917
:10AA5000237B012B05D1637300232000A373FEF732
:10AA6000D5F82000FFF787FFE2E77047C0680029AC
:10AA700004DD002802D00139406AF8E7704710B5BC
:10AA80000400FEF7C3FB2000FDF7DAFE200010BD36
:10AA9000F7B5838804005A070FD59A060CD4DA0656
:10AAA0000BD5010008221831684600F090FB22699E
:10AAB00063692000FFF759FDF7BD04220226012734
:10AAC0001343A380A388A56833421DD02100082228
:10AAD0001831684600F07BFB22696369280000F0AA
:10AAE000B1F81022A38813421ED0256A002D1BD076
:10AAF0002900A01800F06BFB2B6928002362FDF7EA
:10AB00009FFEFDF74DFDDDE73B4207D0E36820697E
:10AB100000936169A269E369A847E2E72069616976
:10AB2000A269E369A847DCE704229343A380C3E753
:10AB3000030072B60069002807D002691A61002A72
:10AB400000D15A615A8B013A5A8362B67047F7B501
:10AB5000002507002E00C468002C1BD0A388626A61
:10AB600001921AB2002A10DA042213420DD1019B7D
:10AB7000002E0DD1FB60636A20000193FFF7EBFC10
:10AB80002000FDF75DFE340001352600019CE3E75F
:10AB90007362F0E72800FEBD70B5012286B00400A4
:10ABA0000D004669FEF770FB002823D1638B092B4B
:10ABB00020D82900102202A800F009FB1820FDF778
:10ABC0001FFE050004A90822684600F000FB029A57
:10ABD000039B2800FFF771FD72B6002E0CD123698C
:10ABE0002B6125612B69002B00D16561638B0133DB
:10ABF000638362B606B070BD33692B613561F1E7DE
:10AC000082B010B502A902920393FFF7C5FF00209E
:10AC100010BC08BC02B0184770B50500FFF797FFDD
:10AC20002800FFF785FF041E0BD00100002228003A
:10AC3000FEF72AFB2000FDF703FEFDF775FC002858
:10AC4000EED170BD82B073B50400061D069208A94E
:10AC500008226846079300F0BAFA65693100069A3F
:10AC6000079B2068A84773BC08BC02B0184702685D
:10AC700010B594460A680023944507D10431043086
:10AC8000102200F095FA43424341DBB2180010BD98
:10AC900010B504000068FFF75BFD200010BD10B583
:10ACA0000A00002100F09CFA10BD10B5006843882E
:10ACB000818806305943FFF7F2FF10BD10B504003C
:10ACC0000023FEF713FD200010BDF0B587B00491FE
:10ACD0000CA9097803900591016800200291498828
:10ACE0008C468A4266DA029989888B4262DA049C31
:10ACF00026687788D419019484425BDDB5885C1995
:10AD0000844257DD824234DAD019604501DD604665
:10AD10000190002B34DA8C4200DD0C00B01D0026BF
:10AD2000D11755422940B34201DA5F437E42029D6A
:10AD3000761886190635111C002A00DA0021002237
:10AD400009B2934201DD62465A43059B51186D18C2
:10AD5000002B26D000221000A2422BDA00230199FA
:10AD60008B4212DAF15C002901D0E9540130013341
:10AD7000F5E76046801A0190B842CADD0197C8E73E
:10AD8000CC1AAC42CADD2C00C8E7049B01321B6818
:10AD900002935B88F618039B1B6802935B88ED188F
:10ADA000DAE7059FA74207DBE043019BC01720407D
:10ADB0004343180007B0F0BD31002800019A00F0AD
:10ADC00006FA049B01371B6802935B88F618039B05
:10ADD0001B6802935B88ED18E4E7036810B5040074
:10ADE000002B05D1C06800F03AF9012360602360B0
:10ADF00010BD10B504000068002804D0E06800F021
:10AE00002EF96368C01A10BD10B58468FFF7F1FF12
:10AE1000201810BD10B50400C06800F020F9002310
:10AE20006060A36010BD002310B5036043608360C1
:10AE30000400FEF74DFDE0602000FFF7EBFF20006F
:10AE400010BD10B503689B68984710BD10B50A0087
:10AE50000300011D006900F0CAF810BD10B5011D06
:10AE6000006900F0E0F810BD10B5040043684269C5
:10AE70009918FFF7EBFFE36A002B04D1A369002BBD
:10AE800000D0984710BDA0690028FBD021001C31DC
:10AE90009847F7E710B50400FFF7E0FF0023A36130
:10AEA000E36210BD70B50D000400FFF7D7FF6561C8
:10AEB000206900F0D4F841192000FFF7C7FF70BDEA
:10AEC00010B50120FFF7E0F87047704710B5FFF7A5
:10AED000FCFFFFF7F9FFFDF799F910BD10B5002849
:10AEE00001D000F0C1F8FEE7C36A010010B5806927
:10AEF000002B03D1002800D0804710BD0028FCD0D3
:10AF00001C319847F9E710B50400FEF7D3FC200088
:10AF100000F04AF9200010BD70B50D0004001600C5
:10AF2000FEF714FD6B1C07D00021200000F0E8F8AC
:10AF30003100200000F0DEF870BD70B543680400F9
:10AF40000D00002A0AD0C26813602000012100F021
:10AF5000D7F82900200000F0CDF870BD0269F3E7B2
:10AF600010B50322FFF7D8FF10BD10B5FFF7D4FFCF
:10AF700010BD70B50D0004001600FEF7E7FC6B1C59
:10AF800004D0320000212000FFF7D7FF70BD10B5BC
:10AF90000022FFF7EEFF10BD70B504000D0003683E
:10AFA0001B68984763681D6070BD036870B5DB68F7
:10AFB0000400984763685A682368002A02D19B6896
:10AFC000984770BD5B681568984763682D1A5A6882
:10AFD000002D07DC916859601B68002BEAD050688F
:10AFE0009847E7E7236810681B699847E9E770B559
:10AFF0000D0072B64B60002346680A607468002C2E
:10B0000009D1002B0DD1036875601B6910009847AA
:10B01000AC6062B670BD2168511AF2D42300A468F6
:10B02000EDE79D60F4E710B572B6426853688B4255
:10B030000DD19B6853600268002B03D19368984739
:10B0400062B610BD126918689047F9E71300002B2B
:10B05000F6D09A688A42F9D18A689A60F0E710B50A
:10B0600003685B68984710BD10B59AB0032102A829
:10B07000FFF78DFF022108A8FFF789FF01210EA825
:10B08000FFF785FF102114A8FFF781FF9624059B89
:10B09000039A20001A60099A0C9B1A600F9A129B5F
:10B0A0001A60159A179B01921A6000F01CF8069B13
:10B0B000039A20001A60099A0B9B1A600F9A119B41
:10B0C00001921A60159A189B1A6000F00CF8DEE7DE
:10B0D00070B50400FEF7E8FC0500FEF7E5FC401B38
:10B0E000A042FAD370BDFA2310B59B005843FFF776
:10B0F000EFFF10BD10B5007840B200F00FF810BDA2
:10B10000002902D0012900D070470023A022C35695
:10B11000D205C133FF339B009950F5E7A02380008F
:10B12000DB05C018E02310B50C24DB00C2588900F1
:10B13000A243C250C2581143C15010BD704770475E
:10B1400030B5002902D001290FD030BD01220C00FA
:10B1500013008B4005691D4203D005688B00EB1876
:10B160001C6001311F29F3D1EFE700230A009A4048
:10B170000469144203D004689A00A21811600133D4
:10B180001F2BF3D1E1E70B00426810B51468016989
:10B19000634019406140116010BD0B0010B5010003
:10B1A0001800FEF763FF10BD10B5FEF7B1FF10BD2C
:10B1B00030B50024A24201D1002005E0035D651CEA
:10B1C0000C5DA34201D0181B30BD2C00F2E7002318
:10B1D00010B59A4200D110BDCC5CC4540133F8E7DD
:10B1E00003001218934200D1704719700133F9E738
:10B1F0000023C25C0133002AFBD1581E7047704700
:10B2000070470000F8B5C046F8BC08BC9E467047C1
:10B21000F8B5C046F8BC08BC9E4670470500000063
:10B220000500000003000000090000000D040000FC
:10B23000A4B3010000000000000000009BA3010077
:10B2400099A30100A3A30100A5A30100FFFF000033
:10B25000000000000000000000000000BD8A0100A6
:10B2600099A30100998B010071A701000100000062
:10B270001700000046000000A30000005F0100006E
:10B28000D6020000C4050000A00B00000000000072
:10B29000000000001DAA010099A30100258D0100F6
:10B2A000A5A70100000000000000000001AC0100A3
:10B2B0003D910100C99001006DAA01000D920100AD
:10B2C0007FAA010019AC0100FCFFFFFF0000000095
:10B2D0006BAA01000D9301002D9201003D92010027
:10B2E000FFFF01000100000000000000000000005E
:10B2F0000000000000000000C1AE010000000000DE
:10B3000000000000098D0100B7A7010069AE01002F
:10B310000000000000000000B598010007AF010028
:10B32000E9AE01002CB30100302200201D9A01007B
:10B33000A99A01003DB101003FB10100C19A01008D
:10B3400000000000000000000000000000000000FD
:10B3500000000000000000000000000000000000ED
:10B3600000000000000000000000000000000000DD
:10B3700000000000000000000000000000000000CD
:10B3800000000000000000000000000000000000BD
:10B3900000000000000000000000000000000000AD
:10B3A0001020002000000402020402000002040435
:10B3B000040002020004040301000001030303006F
:10B3C000010102030304020101030104030100035C
:10B3D0000000040101020000030200000402020454
:10B3E000020000020404040002020004040301003D
:10B3F000000103030300010102030304020101032E
:10B400000104030100030000040101020000030223
:10B410001B1B000E11000000000008080800080AAD
:10B420004A4000000A5FEA5FEA0ED92ED36E193255
:10B430004489330C924C924D08080000000488089F
:10B4400008040804848488000A448A4000048EC4E6
:10B4500080000000048800000EC00000000008000A
:10B4600001224488100C9252524C048C84848E1C0D
:10B47000824C901E1EC244924C06CA525FE21FF0DC
:10B480001EC13E02448ED12E1FE24488100ED12EE2
:10B49000D12E0ED12EC488000800080000048004BC
:10B4A000880244880482000EC00EC00804824488CA
:10B4B0000ED126C0040ED135B36C0C925ED2521C54
:10B4C000925C925C0ED010100E1C9252525C1ED0F8
:10B4D0001C901E1ED01C90100ED013712E12525EA6
:10B4E000D2521C8808081C1FE242524C1254981475
:10B4F00092101010101E113B75B131113935B37116
:10B500000C9252524C1C925C90100C92524C861C25
:10B51000925C92510ED00C825C1FE484848412529F
:10B5200052524C1131312A44113135BB7112524CF7
:10B530009252112A4484841EC488101E0EC8080822
:10B540000E10080482410EC242424E048A4000009E
:10B55000000000001F0804800000000ED2524F10AF
:10B56000101C925C000ED0100E02424ED24E0C9275
:10B570005C900E06C81C88080ED24EC24C10101CDF
:10B5800092520800080808024002424C1014981415
:10B59000920808080806001B75B131001C9252522F
:10B5A000000C92524C001C925C90000ED24EC200D5
:10B5B0000ED010100006C8049808080EC807001224
:10B5C00052524F0011312A4400113135BB00124C48
:10B5D0008C9200112A4498001EC4881E06C48C84D4
:10B5E00086080808080818080C881800000C8360F2
:04B5F0000000000057
:08B5F40014CBFF7F01000000F1
:10B5FC000000000015B4010068220020102000207B
:10B60C000000000060B3010080B3010040B30100F2
:10B61C00000000000000000000000000000000001E
:10B62C00000000000000000000000000000000000E
:10B63C0000000000000000000000000000000000FE
:10B64C0000000000000000000000000000000000EE
:10B65C0000000000000000000000000000000000DE
:10B66C00E980010055820100258A0100758A0100DC
:0CB67C006D96010021980100C1800100C2
:0400000310009B89C5
:00000001FF
